:020000040800F2
:10000000A80A0020BD2A0008B3020008B5020008B3
:10001000B9020008BD020008C1020008000000008B
:10002000000000000000000000000000C502000801
:10003000C702000800000000C9020008CB02000847
:10004000D72A0008D72A0008D72A0008D72A00088C
:10005000D72A0008D72A0008D72A0008D72A00087C
:100060003F2400086124000883240008D72A0008E0
:10007000D72A0008D72A0008D72A0008D72A00085C
:10008000D72A0008D72A0008D72A0008D72A00084C
:10009000D72A0008D72A0008D72A0008A524000874
:1000A0005B0A0008D72A0008D72A0008D72A0008C8
:1000B000D72A0008C10A0008D72A0008D72A000852
:1000C000D72A0008D72A0008D72A0008D72A00080C
:1000D000D72A0008C1270008D72A0008912900085C
:1000E000D72A0008D72A0008D72A0008D72A0008EC
:1000F000D72A0008D72A0008D72A0008D72A0008DC
:10010000D72A0008D72A0008D72A0008D72A0008CB
:10011000D72A0008D72A0008D72A0008D72A0008BB
:10012000D72A0008D72A0008D72A0008D72A0008AB
:10013000D72A0008D72A0008D72A0008D72A00089B
:10014000D72A0008D72A0008D72A0008D72A00088B
:10015000D72A0008D72A0008D72A0008D72A00087B
:10016000D72A0008D72A0008D72A0008D72A00086B
:10017000D72A0008D72A0008D72A0008D72A00085B
:10018000D72A0008D72A000800F002F800F058F833
:100190000AA090E8000C82448344AAF10107DA45E2
:1001A00001D100F04DF8AFF2090EBAE80F0013F0DC
:1001B000010F18BFFB1A43F001031847647C0000CD
:1001C000847C0000103A24BF78C878C1FAD852075E
:1001D00024BF30C830C144BF04680C6070470000C1
:1001E0000023002400250026103A28BF78C1FBD840
:1001F000520728BF30C148BF0B607047662907F01F
:10020000C484642904F04487632905F002837329B8
:1002100005F00783002070471FB507F0ACFC05F020
:100220009FFD04000020002107F0A6F8401C60603C
:100230000020002107F08AF8E0601FBD10B510BD56
:1002400006F054F81146FFF7E7FF00F008F806F053
:10025000ADFA03B4FFF7F2FF03BC02F0EDF9A820FA
:1002600002F038F94FF4FA7002F096F94FF480601A
:1002700002F044FC4FF4E13002F0FAF94FF4E130BF
:1002800002F0DEFA00F0F6F9A7214FF47A7000F0E0
:10029000D9F900F055FC01F0BBFD02F070F807E061
:1002A00001F0AFF901F075FE01F03FFF01F0C9FC6C
:1002B000F6E7704700BFFEE700BFFEE700BFFEE7BE
:1002C00000BFFEE770477047704770470CB50020CD
:1002D000019000907648006840F4803074490860CE
:1002E00000BF7348006800F4003000900198401C83
:1002F0000190009818B90198B0F5A04FF1D16C4861
:10030000006800F4003010B10120009001E00020EE
:1003100000900098012846D165484030006840F0C0
:1003200080506349403108606248006840F44040B2
:10033000604908605E48083000685D49083108601F
:100340000846006840F4004008600846006840F431
:10035000A05008605848091F0860081F006840F056
:100360008070091F086000BF5148006800F00070ED
:100370000028F9D040F20570504908604C48083018
:10038000006820F003004A49083108600846006808
:1003900040F00200086000BF45480830006800F0E7
:1003A0000C000828F8D10CBD10B54548006840F491
:1003B0007000434908603E48006840F001003C4935
:1003C000086000203A4908310860394800683D4912
:1003D0000840374908603C48091D0860081F00684C
:1003E00020F48020091F0860002031490C3108608A
:1003F000FFF76CFF4FF0006031498039086010BD95
:1004000070B500200022022300240221284D083567
:100410002D6805F00C0020B1042806D0082834D13E
:1004200007E02A4D2A4E356033E02A4D284E3560CC
:100430002FE01F4D2D1D2D68C5F380541C4D2D1D23
:100440002D6805F03F0154B1224DB5FBF1F5184E72
:10045000361D3668C6F3881605FB06F209E01B4D0B
:10046000B5FBF1F5124E361D3668C6F3881605FB4E
:1004700006F20F4D2D1D2D68C5F301456D1C6B0057
:10048000B2FBF3F5124E356003E0104D104E3560AF
:1004900000BF00BF064D08352D68C5F303150E4E8D
:1004A000705D0B4D2D68C540094E356070BD000074
:1004B000003802400070004008544007003C0240F1
:1004C00088ED00E0FFFFF6FE103000240024F40069
:1004D0000000002000127A00040000201CB5012159
:1004E000102003F065FF01220821FE4802F087FC7E
:1004F00001220921FB4802F082FC01220A21F9486D
:1005000002F07DFC01220B21F64802F078FC01226A
:100510000C21F44802F073FC01220D21F14802F095
:100520006EFC01220E21EF4802F069FC4FF4FE4000
:10053000009002208DF8040000208DF806000220B3
:100540008DF805006946E74802F0CEFB1CBD00B5FA
:1005500089B00121084603F085FF4FF47A700790B7
:10056000A720ADF818000020ADF82000ADF81A0063
:100570008DF8220006A9DC4802F051FF7020ADF88A
:1005800004000120ADF806000020ADF80800ADF829
:100590001000ADF812000A2003904FF48070ADF8FF
:1005A00014000020ADF8160001A9CF4802F0CCFFDE
:1005B0007020ADF804000120ADF806000020ADF871
:1005C0000800ADF81000ADF812000A2003904FF4B7
:1005D0008070ADF814000020ADF8160001A9C248E3
:1005E00002F0EBFF7020ADF804000120ADF806002A
:1005F0000020ADF80800ADF81000ADF812000A2098
:1006000003904FF48070ADF814000020ADF8160090
:1006100001A9B54803F01EF80821B34803F021F9F9
:100620000821B14803F026F90821AF4803F02FF95B
:100630000121AD4802F07CFF0121AB4803F069FBCA
:1006400009B000BD3EB505460C460121102003F05F
:10065000F8FE0195ADF800400020ADF80800ADF8B7
:1006600002006946A14802F0DAFE01219F4802F02B
:100670005FFF3EBD1CB50121022003F099FE02225E
:1006800006219B4802F0BBFB03220821984802F098
:10069000B6FB4020009002208DF8040000208DF869
:1006A000060002208DF805006946914802F01CFB07
:1006B0004FF48070009002208DF8040000208DF827
:1006C000060002208DF805006946894802F00CFBFF
:1006D0001CBD30B589B004460D460121042003F04D
:1006E000B0FE0794A8B2ADF818000020ADF82000C5
:1006F000ADF81A008DF8220006A97E4802F08FFEA0
:100700007020ADF804000120ADF806000220ADF81D
:100710001000601C4008039001A9764802F014FF05
:100720000821744803F09DF88021724803F0E2FB31
:100730002021704803F0CCFB01216E4802F0DAFE64
:1007400009B030BD1FB504460121022003F079FE37
:1007500002940020ADF80400ADF80C00ADF80600DE
:1007600001A9654802F05BFE0121634802F0B6FE74
:100770003021614803F03FFB5F480830008840F0BB
:1007800007005D4908310880002201215A4803F022
:10079000E7FA1D208DF8000000208DF801000320ED
:1007A0008DF8020001208DF80300684602F0ABF9D5
:1007B0000821514802F0AAFE1FBD30B589B0044699
:1007C0000D460121480403F04DFE0794A8B2ADF890
:1007D00018000020ADF82000ADF81A008DF82200B6
:1007E00006A9464802F01BFE7020ADF80400012067
:1007F000ADF806000020ADF810006008039001A9D4
:100800003E4802F0A1FE08213C4803F02AF880216E
:100810003A4803F06FFB2021384803F059FB0121CF
:10082000364802F067FE0121344802F081FE09B02B
:1008300030BD1FB504460121080403F013FE0294E5
:100840000020ADF80400ADF80C00ADF8060001A9D9
:100850002B4802F0E4FD0121294802F03FFE20214F
:10086000274803F0C8FA2648008940F007002449C9
:10087000088100220121224803F072FA18208DF825
:10088000000000208DF801008DF8020001208DF895
:100890000300684602F037F90821194802F036FED5
:1008A0001FBD70B504460D461646164804604EF648
:1008B0006020844200D9044612480068001B114998
:1008C00008602046FFF7B5FF01210D4802F030FE19
:1008D00001210B4803F06CFA01221146084803F08D
:1008E0003FFA11E0001002400000014000100040FB
:1008F00000040240000800400004004000440140A1
:10090000004001403800002031462846FFF755FFDF
:100910000121854803F0FDF970BD70B504460D4610
:100920001646824804604EF66020844200D9044690
:100930007E480068001B7D4908602046FFF702FFE3
:1009400001217B4803F034FA01221146784803F074
:1009500007FA31462846FFF7BCFE0121754803F02F
:10096000D8F90121724802F0E3FD0121714802F03B
:10097000DFFD70BD2DE9F04104460E4617461D46C9
:1009800014B1012C0CD105E03A4631462846FFF758
:10099000C4FF05E03A4631462846FFF782FF00BF14
:1009A00000BFBDE8F08110B504462146624802F060
:1009B00081FD0121604803F0DCF901215E4803F06C
:1009C000F7F9012211465C4803F0CAF901215A489F
:1009D00002F0AEFD10BD10B504462146544802F0A9
:1009E00069FD0121524803F0C4F90121504803F088
:1009F000DFF9012211464E4803F0B2F901214C48BB
:100A000002F096FD10BD2DE9F04105460C46164654
:100A10001F46204604EBD071C1F34F080121284640
:100A200002F050FDC5F83480EC620021284602F047
:100A300049FD012001F0B0FD00223146284602F0B8
:100A40002BFD012F03D10121284603F092F901214A
:100A5000284602F06DFDBDE8F08110B50121364851
:100A600003F095F958B30121334803F0A1F9334855
:100A70000068C0B1314800684EF66021884209D94B
:100A80002E480068401A2D4908604EF66020FFF796
:100A90008AFF14E02949098888B2FFF784FF002003
:100AA000264908600BE00121234803F081F9002169
:100AB0001D4802F03DFD00211F4802F039FD10BD28
:100AC00010B501211A4803F062F958B30121184802
:100AD00003F06EF915480068C0B1144800684EF67E
:100AE0006021884209D911480068401A0F490860FE
:100AF0004EF66020FFF76FFF14E00C49098888B2BA
:100B0000FFF769FF0020094908600BE00021094850
:100B100002F00EFD0021064802F00AFD0021044803
:100B200002F0C6FC10BD000000440140340000206B
:100B30000004004000080040004001403800002050
:100B400010B500F079FA10BD2DE9F04104460D46CC
:100B500026462F463946304600F0F4FABDE8F081CB
:100B60002DE9F04706460C466FF07F490027012526
:100B700096B92CB90021B74803F0CBF8BDE8F0874F
:100B8000C82104FB01F0B449B44A127851F822108C
:100B900000FB01F7DFF8BC82012E11D124B900213E
:100BA000AF4803F0B6F8E9E7C82104FB01F0AA4911
:100BB000AC4A127851F8221000FB01F7DFF8A0824E
:100BC00008E0681CA849B1FBF0F0B0FBF7F0A0F119
:100BD00001096D1C4FF6FF708145F2D26D1EAAB25D
:100BE0001FFA89F100234046FFF70DFF00BFC5E75C
:100BF0002DE9F04104460E4617461D46A84614B19D
:100C0000012C16D10AE00821984802F0E9F8434681
:100C10003A4631460020FFF7ADFE0AE080219348B6
:100C200002F0DEF843463A4631460120FFF7A2FEC5
:100C300000BF00BFBDE8F0812DE9F04104460E463B
:100C400017461D46A84614B1012C16D10AE008210A
:100C5000864802F0C7F843463A4631460020FFF77F
:100C600089FE0AE08021814802F0BCF843463A46FA
:100C700031460120FFF77EFE00BF00BFBDE8F081D6
:100C80002DE9F0472DED028B804689461646B0EEE1
:100C9000408A71487149097850F82100C8214843B9
:100CA00000EE100AB8EE400A20EE080ABDEEC00AB7
:100CB00010EE104A6FF07F4A00270125B8F1000FAF
:100CC00003D0B8F1010F36D11AE0634863490978BF
:100CD00050F82100C821484300EE100AB8EE400A3F
:100CE00020EE080ABDEEC00A10EE104A06FB01F025
:100CF00059495A4A127851F8221000FB01F71AE0BC
:100D000055485849097850F82100C821484300EE59
:100D1000100AB8EE400A20EE080ABDEEC00A10EE36
:100D2000104A06FB01F04C494C4A127851F8221047
:100D300000FB01F700BF00BF09F0FF014046FFF7CD
:100D400003FF08E0681C4849B1FBF0F0B0FBF7F086
:100D5000A0F1010A6D1C4FF6FF708245F2D26D1EA4
:100D60001CB9BDEC028BBDE8F087002C07DA6442A9
:100D700023462A4651464046FFF75EFF05E02346DC
:100D80002A4651464046FFF733FF00BFE9E770B5FA
:100D900004460D4614B1012C12D108E00421334859
:100DA00002F020F829462046FFF7CEFE08E0402159
:100DB0002E4802F017F829462046FFF7C5FE00BF6F
:100DC00000BF70BD70B504460D4614B1012C1AD198
:100DD0000CE000211F4802F09CFF00211D4802F09A
:100DE000A7FB0021224802F0A3FB0CE000211C48D5
:100DF00002F08FFF00211A4802F09AFB00211D48E3
:100E000002F096FB00BF00BF29462046FFF79CFE7C
:100E100070BD10B1012806D102E0104A117002E045
:100E2000104A117000BF00BF704770B50024002544
:100E3000002000F0B8F90446012000F0B4F905469E
:100E400021460DA004F0A6F8294613A004F0A2F84C
:100E500070BD0000000800408C7C00085900002094
:100E6000004401405A00002000BD0105000C024072
:100E700000040040004001407468652076616C7594
:100E800065206F66204D4F544F52582053544C20CC
:100E900069732025640D0A007468652076616C759D
:100EA00065206F66204D4F544F52592053544C20AB
:100EB00069732025640D0A0010B50446012001F075
:100EC00023FB14B1012C0BD104E01021C44801F024
:100ED00087FF05E04FF40071C24801F081FF00BFB9
:100EE00000BF4FF47A7001F00FFB10BD10B504463F
:100EF00014B1012C1CD10DE04FF40071B94801F080
:100F00006FFF4FF47A7001F0FFFA1021B44801F03E
:100F100069FF0DE01021B24801F062FF4FF47A70D2
:100F200001F0F2FA4FF40071AE4801F05BFF00BF30
:100F300000BF012001F0E8FA10BD2DE9F0410446A0
:100F40000D4616460027B0466806070E64B9002015
:100F5000FFF7CCFF384600F06AFA404600F067FA27
:100F60000020FFF7A9FF0DE0012C0BD10120FFF7B6
:100F7000BDFF384600F05BFA404600F058FA012009
:100F8000FFF79AFFBDE8F0812DE9F04104460D46D8
:100F900000260027402040EA4500C6B26CB9002078
:100FA000FFF7A4FF304600F042FAFF2000F03FFABE
:100FB00007460020FFF780FF0EE0012C0CD1012036
:100FC000FFF794FF304600F032FAFF2000F02FFACE
:100FD00007460120FFF770FF3846BDE8F08170B585
:100FE0000546102407212846FFF7CEFF0646344366
:100FF000224607212846FFF7A0FF012001F084FACE
:1010000070BD2DE9F04106460C46254605213046C7
:10101000FFF7BAFF074607F0F00005432A4605210F
:101020003046FFF78AFF012001F06EFA2146304674
:10103000FFF7EFFEBDE8F0811CB501214C2003F065
:10104000B7F98820009001208DF8040000208DF869
:10105000060002208DF805006946614801F044FE53
:101060004FF44070009001208DF8040000208DF8AE
:10107000060002208DF8050069465B4801F034FE49
:101080002220009000208DF8040001208DF8070038
:101090006946534801F028FE5420009001208DF845
:1010A00004008DF8060002208DF8050069464C48C2
:1010B00001F01AFE4FF40070009001208DF804003A
:1010C0008DF8060002208DF805006946454801F0BC
:1010D0000BFE00F048F9022001F05EFA10214048B2
:1010E00001F07EFE4FF400713E4801F079FE4FF4AE
:1010F0007A7001F009FA4FF480713B4801F070FEFC
:101100004FF40071384801F06BFE012001F044FA01
:101110000421334801F064FE4021314801F060FEB3
:10112000012001F039FA06210020FFF76AFF0621AD
:101130000120FFF766FF0020FFF751FF0120FFF7B6
:101140004EFF1CBD2DE9F04106460C460027200746
:10115000050E03213046FFF717FF074607F00F0083
:1011600005432A4603213046FFF7E7FE03213046B8
:10117000FFF70AFF0746012001F0C6F9BDE8F0813C
:1011800070B50546102407212846FFF7FDFE0646E8
:1011900026EA0404224607212846FFF7CEFE012056
:1011A00001F0B2F970BD10B5044609212046FFF7E1
:1011B000EBFE10BD2DE9F04106460C460027E00786
:1011C000050E04213046FFF7DFFE074607F07F00DB
:1011D00005432A4604213046FFF7AFFEBDE8F08103
:1011E000000C0240001802400008024018B900221A
:1011F000CA800A8115E0012804D10022CA80012298
:101200000A810EE0022804D10222CA8000220A814B
:1012100007E0032804D10222CA8001220A8100E0EB
:10122000704700BFFCE700B587B00121022003F042
:10123000BFF80121880303F004F94FF460400590E2
:1012400002208DF8180000208DF81A0002208DF879
:10125000190001208DF81B0005A9AF4801F044FDDD
:1012600005220D21AC4801F0CAFD05220E21AA4835
:1012700001F0C5FD05220F21A74801F0C0FD0121A5
:10128000080303F044F900214FF4805003F03FF9C4
:101290000021A24803F082FD0020ADF800004FF4C9
:1012A0008270ADF802000020ADF80400ADF8060031
:1012B0000120ADF808004002ADF80A002820ADF882
:1012C0000C000020ADF80E000720ADF810006946B4
:1012D000924803F069FC0121904803F05FFD07B0DC
:1012E00000BD00B587B00121084603F061F8012177
:1012F000080303F0B7F8E020009002208DF8040006
:1013000000208DF8060002208DF80500694684480B
:1013100001F0EAFCE021824801F062FD0020ADF816
:1013200008004FF48270ADF80A000020ADF80C0000
:10133000ADF80E00ADF810004FF40070ADF81200DB
:101340001020ADF814000020ADF816000720ADF80D
:10135000180002A9734803F027FC0121714803F02B
:101360001DFD07B000BD00B587B00121042003F0CA
:101370001FF80121C80303F064F84FF4E050059012
:1013800002208DF8180000208DF81A0002208DF838
:10139000190005A9644801F0A7FC06220A21624849
:1013A00001F02DFD06220B215F4801F028FD0622E9
:1013B0000C215D4801F023FD00215C4803F0EEFCA8
:1013C0000020ADF800004FF48270ADF8020000205C
:1013D000ADF80400ADF806000120ADF808004002A9
:1013E000ADF80A002020ADF80C000020ADF80E008A
:1013F0000720ADF8100069464C4803F0D5FB0121E9
:101400004A4803F0CBFC07B000BD10B50446434882
:1014100000884FF6C7710840404908800846008898
:101420002043088001213D4803F0B8FC10BD70B591
:101430000546002405E0601CC4B2C82C01DD002074
:1014400070BD0221394803F073FD0028F3D029460E
:10145000364803F024FD002405E0601CC4B2C82C0B
:1014600001DD0020ECE70121304803F061FD002898
:10147000F3D02E4803F010FDC0B2E1E770B5054689
:10148000002405E0601CC4B2C82C01DD002070BD42
:101490000221224803F04CFD0028F3D029461F48C2
:1014A00003F0FDFC002405E0601CC4B2C82C01DD83
:1014B0000020ECE70121194803F03AFD0028F3D0A1
:1014C000164803F0E9FCC0B2E1E770B50546002418
:1014D00005E0601CC4B2C82C01DD002070BD0221F3
:1014E000104803F025FD0028F3D029460D4803F0ED
:1014F000D6FC002405E0601CC4B2C82C01DD00202D
:10150000ECE70121074803F013FD0028F3D005485C
:1015100003F0C2FCC0B2E1E7000402400038004022
:10152000000002400030014000080240003C004042
:101530002DE9F04790B00746884616460024A2469B
:1015400000259FEDFE0B8DED000B384603F00CFEE1
:1015500081463946FB4803F0F5FD04461CB90020DE
:1015600010B0BDE8F0874C44002538E000200C9016
:101570000D900E900F90824616E02078302802DB06
:101580002078392805DD20782E2802D020782D28D3
:1015900007D114F8012B50460AF1010A0CA90A548C
:1015A00001E0641C00E000BF20783B2805D02078D3
:1015B0000D2802D020780A28DFD16A46E2A10CA8C3
:1015C00003F0A2FD012801D00020C9E79DED000B2A
:1015D00002A800EBC50080ED000B641C6D1CB54239
:1015E000C4DB002509E002A800EBC50090ED000B6C
:1015F00008EBC50080ED000B6D1CB542F3DB01204C
:10160000AEE730B52DED048B8BB0182104A803F0A4
:1016100047FECE48007801287DD10020CB490870D4
:10162000CBA1C84803F08EFD88B3012204A9C8A04D
:10163000FFF77EFF9DED041BB0EE410AF0EE610A5C
:1016400051EC100B06F088F8C0B2C44901EBC000A1
:1016500090ED000BB0EE408AF0EE608A53EC182B50
:10166000BFA003F097FC9DED041BB0EE410AF0EE25
:10167000610A51EC100B06F06FF8C4B2214600204D
:10168000FFF762FA01200BB0BDEC048B30BDFFE721
:10169000B9A1AC4803F056FD00B3012204A9B6A0DD
:1016A000FFF746FF9DED041BB0EE410AF0EE610A24
:1016B00053EC102BB3A003F06DFC9DED041BB0EEBA
:1016C000410AF0EE610A51EC100B06F045F8C4B285
:1016D00021460020FFF744FA0120D4E7B0A1994841
:1016E00003F030FD80B3012204A9ADA0FFF720FF75
:1016F0009DED041BB0EE410AF0EE610A51EC100BB7
:1017000006F02AF8C0B2954901EBC00090ED000B3D
:10171000B0EE408A00E092E2F0EE608A53EC182BC3
:10172000A3A003F037FC9DED041BB0EE410AF0EEE0
:10173000610A51EC100B06F00FF8C4B221460020EC
:10174000FFF725FB01209EE7FFE7A0A17D4803F0FE
:10175000F9FC70B3012204A99CA0FFF7E9FE9DEDFE
:10176000041BB0EE410AF0EE610A51EC100B05F0DB
:10177000F3FFC0B2794901EBC00090ED000BB0EE71
:10178000408AF0EE608A53EC182B94A003F002FC20
:101790009DED041BB0EE410AF0EE610A51EC100B16
:1017A00005F0DAFFC4B221460020FFF70BFB04204E
:1017B00069E7FFE790A1634803F0C4FC002866D006
:1017C000032204A98CA0FFF7B3FE9DED081BB0EE29
:1017D000410AF0EE610A9FED8B1B53EC112B51EC8B
:1017E000100B05F025FE41EC180B9DED041BB0EE2F
:1017F000410AF0EE610A51EC100B05F0ADFFC0B2EA
:10180000564901EBC00090ED000BB0EE409AF0EEAF
:10181000609A8DED028B9DED060B8DED000B53EC68
:10182000192B7AA003F0B6FB9DED081BB0EE410A20
:10183000F0EE610A9FED731B53EC112B51EC100B72
:1018400005F0F6FD41EC190B05F0ACFD08EE100AB1
:101850009DED061BB0EE410AF0EE610A51EC100B53
:1018600005F07AFF05469DED041BB0EE410AF0EE4F
:10187000610A51EC100B05F06FFFC4B2B0EE480ADC
:101880002A4621460020FFF7FBF90520FBE669A167
:101890002C4803F057FC70B3012204A965A0FFF7A0
:1018A00047FE9DED041BB0EE410AF0EE610A51ECDB
:1018B000100B05F051FFC0B2284901EBC00090EDBC
:1018C000000BB0EE408AF0EE608A53EC182B5CA05F
:1018D00003F060FB9DED041BB0EE410AF0EE610ADF
:1018E00051EC100B05F038FFC4B221460120FFF780
:1018F0002BF90120C7E6FFE757A1124803F022FCAD
:10190000D0B1012204A954A0FFF712FE9DED041BE3
:10191000B0EE410AF0EE610A53EC102B51A003F037
:1019200039FB9DED041BB0EE410AF0EE610A51EC6B
:10193000100B05F011FFA3E0A9E00000000000007B
:10194000000000003C020020256C6600AE00002074
:101950004D4F544F52582D433A000000B87C0008B8
:101960004D4F544F52582D433A52454345495645E1
:101970003A25660D0A0000004D4F544F52582D5322
:101980003A0000004D4F544F52582D533A524543A0
:10199000454956453A25666D6D2F730D0A000000C6
:1019A0004D4F544F52582D53544152543A00000059
:1019B0004D4F544F52582D53544152543A5245436F
:1019C000454956453A25660D0A0000004D4F544FD3
:1019D00052582D53544F503A000000004D4F544F71
:1019E00052582D53544F503A524543454956453A63
:1019F00025660D0A000000004D4F544F52582D52DD
:101A0000554E3A0000000000000024404D4F544F56
:101A100052582D52554E3A524543454956453A255E
:101A2000662C2566206D6D2F732C2566206D6D0D3F
:101A30000A0000004D4F544F52592D433A00000008
:101A40004D4F544F52592D433A52454345495645FF
:101A50003A25660D0A0000004D4F544F52592D5340
:101A60003A0000004D4F544F52592D533A524543BE
:101A7000454956453A25666D6D2F730D0A000000E5
:101A8000C4B221460120FFF76BF80120FBE57BA1E2
:101A90007E4803F057FB70B3012204A977A0FFF73B
:101AA00047FD9DED041BB0EE410AF0EE610A51ECDA
:101AB000100B05F051FEC0B2754901EBC00090ED6E
:101AC000000BB0EE408AF0EE608A53EC182B71A048
:101AD00003F060FA9DED041BB0EE410AF0EE610ADE
:101AE00051EC100B05F038FEC4B221460120FFF77F
:101AF0004EF90120C7E5FFE76DA1644803F022FB22
:101B000070B3012204A96AA0FFF712FD9DED041B2A
:101B1000B0EE410AF0EE610A51EC100B05F01CFE2C
:101B2000C0B25B4901EBC00090ED000BB0EE408A03
:101B3000F0EE608A53EC182B61A003F02BFA9DEDB8
:101B4000041BB0EE410AF0EE610A51EC100B05F0F7
:101B500003FEC4B221460120FFF734F9042092E5C8
:101B60005EA14A4803F0EEFA002866D0032204A9D9
:101B70005AA0FFF7DDFC9DED081BB0EE410AF0EE28
:101B8000610A1FED601B53EC112B51EC100B05F09B
:101B90004FFC41EC180B9DED041BB0EE410AF0EE3A
:101BA000610A51EC100B05F0D7FDC0B2384901EBCA
:101BB000C00090ED000BB0EE409AF0EE609A8DED13
:101BC000028B9DED060B8DED000B53EC192B46A0FF
:101BD00003F0E0F99DED081BB0EE410AF0EE610A5A
:101BE0001FED781B53EC112B51EC100B05F020FC72
:101BF00041EC190B05F0D6FB08EE100A9DED061B13
:101C0000B0EE410AF0EE610A51EC100B05F0A4FDB4
:101C100005469DED041BB0EE410AF0EE610A51EC61
:101C2000100B05F099FDC4B2B0EE480A2A462146D1
:101C30000120FFF725F8052025E5002023E50020F9
:101C400021E510B53248007848B1012030490870CC
:101C5000012214212F48006800F0BAFC0CE02D4846
:101C6000006800F0C2FC38B1002214212948006845
:101C700000F0AEFCFFF7D9F810BD00004D4F544FF7
:101C800052592D53544152543A0000003C02002056
:101C9000B87C00084D4F544F52592D535441525463
:101CA0003A524543454956453A25660D0A0000001B
:101CB0004D4F544F52592D53544F503A000000008D
:101CC0004D4F544F52592D53544F503A524543455E
:101CD0004956453A25660D0A000000004D4F544F05
:101CE00052592D52554E3A004D4F544F52592D5284
:101CF000554E3A524543454956453A25662C256688
:101D0000206D6D2F732C2566206D6D0D0A0000006F
:101D1000800000207C00002020B10021C0F8441188
:101D2000C0F8401170470146D1F84001401C0A221A
:101D300090FBF2F302FB1300D1F84421904201D151
:101D4000012070470020FCE7014601F5A07005C89E
:101D5000904201D1012070470020FCE70FB410B57C
:101D600004462046FFF7DFFF18B1002010BC5DF8E5
:101D700014FBD4F8401104EB4110202203A903F016
:101D80005DFAD4F84001401C0A2190FBF1F201FBFE
:101D90001200C4F840010120E8E7014601F5A070F7
:101DA00005C8801A0A300A2290FBF2F302FB1300E6
:101DB00080B2704770B504460D461CB12046FFF74F
:101DC000C3FF08B1002070BDD4F8440104EB4011FA
:101DD0002022284603F032FAD4F84401401C0A219C
:101DE00090FBF1F201FB1200C4F844010120EAE784
:101DF0000121017070470121017070470146087888
:101E0000012803D100200870012070470020FCE762
:101E100000B58DB0F748FFF77FFFF748FFF7E8FF01
:101E2000F6A0059002208DF8180001208DF81A0008
:101E30004FF47A700790142208A9684603F0FEF95F
:101E4000EC4805A90EC9FFF789FFEEA00590022016
:101E50008DF8180006208DF81A0045200790012102
:101E6000089109910A910B910C91142208A96846D6
:101E700003F0E4F9DF4805A90EC9FFF76FFFE3A0FF
:101E8000059003208DF81800142208A9684603F075
:101E9000D5F9D84805A90EC9FFF760FF0DB000BD00
:101EA0000FB410B592B00024342105A803F0F8F95E
:101EB0009DF85400012808D1D5A105A8149A03F073
:101EC00075F805A800F0D8FD5FE09DF854000228E1
:101ED0004FD19DF85640072C45D2DFE804F044046A
:101EE0000B141F2C3B00CDA105A8169B149A03F0E0
:101EF0005DF839E017980090CBA105A8169B149ABD
:101F000003F054F830E0DDE91701CDE90001CAA182
:101F100005A8169B149A03F049F825E0DDE917128D
:101F20001998CDE900120290C8A105A8169B149A31
:101F300003F03CF818E0DDE91723DDE91910CDE9DD
:101F40000023CDE90210C6A105A8169B149A03F040
:101F50002DF809E017980090C7A105A8169B149AC0
:101F600003F024F800E000BF00BF05A800F084FDE6
:101F70000BE09DF85400032807D1C8A105A8149AC6
:101F800003F014F805A800F077FD12B010BC5DF85E
:101F900014FB00B58DB0C3480078012814D105A901
:101FA0009448FFF707FF09A80FC88DE80F0005A8A0
:101FB0000FC8FFF775FF01222821BB4800F008FB7E
:101FC0000020B84908701FE08B48FFF717FF012871
:101FD0000AD000222821B44800F0FAFA0120B149C1
:101FE000087000200DB000BDAF4800F0FEFA48B107
:101FF00000222821AC4800F0EBFA0120A949087022
:102000000220EFE70120EDE700BFEBE72DE9F04FFD
:1020100085B0064600240027A2460025A046344687
:10202000F81C215CB81C205C01EB0020049007F137
:102030000609AB4600BF08E0484609F10109205CEB
:10204000584400F0FF0B0AF1010ABAF10C0FF3DB60
:1020500014F80900584503D0002005B0BDE8F08F02
:1020600007F1060900251FE04FF000080AE0484686
:1020700009F10109205C8D4901EB850101F8080097
:1020800008F10108B8F1040FF1DB884800EB850086
:1020900090ED000A10EE101A084605F0FBFC844A89
:1020A00002EBC50203C26D1C032DDDDB804890ED01
:1020B000040B8DED020B90ED020B8DED000B90EDFE
:1020C000001BB0EE410AF0EE610A53EC102B79A030
:1020D00002F060FF0120C0E72DE9F041064600272D
:1020E000002417E004EB44017B4A02EB81014868BD
:1020F00003F03AF8C5B204EB4400774A02EB8000E3
:102100002A464168304603F04EF808B9274608E0F1
:10211000601CC4B204EB44006F4911F8200004288D
:10212000E0D100BF3846BDE8F0812DE9F04100253F
:10213000A8460027002007464CE0384600F0B1FCD6
:10214000044694F83400012841D1002084F834007A
:10215000254662A1284602F0F5FFF0B160A12846AD
:1021600002F0F0FFC8B1281DFFF7B6FF0646042EA7
:102170000DD029465BA002F00DFF06EB4600564A43
:1021800002EB8000416857A002F004FF02E056A075
:1021900002F000FF4FF001080EE02878AA2808D1CD
:1021A0006878552805D12846FFF730FF4FF0010821
:1021B00002E052A002F0EEFEB8F1010F05D10E4888
:1021C000FFF719FE0020BDE8F0810120FBE7781C35
:1021D000C0B20746052FB0DB00BFF4E710B50446D8
:1021E00034B14CA002F0D6FE4FA000F045FCA4E0B4
:1021F000A0E00000E8000020A1000020534D505254
:10220000000000005347444D0000000047534400C5
:1022100041542B25733D3F0D0A00000041542B25EE
:10222000733D25640D0A000041542B25733D256440
:102230002C25640D0A00000041542B25733D2564B4
:102240002C25642C25640D0A0000000041542B2528
:10225000733D25642C25642C25642C25640D0A000F
:1022600041542B25733D25642C25642C25642C2595
:10227000642C25640D0A000041542B25733D284130
:1022800030312C4130322C413033293B25633B31F6
:102290003B28574D413A2564290D0A0041542B250E
:1022A000730D0A00A200002030020020C0000020B0
:1022B000D0000020746865206361707475726520B9
:1022C00064617461206973202566202025662020C2
:1022D0002566200D0A000000387D000841434B00B0
:1022E0004F4B000025730A006E6F74206D6174639C
:1022F0006820636F6D6D616E64200000636F6D6DAB
:10230000616E6420666F726D6174206572726F72A7
:102310000A0000005265616C54696D654D6F64651B
:10232000204F4E0D0A00000041542B4753440D0A24
:102330000000000001A000F09FFB10BD41542B479E
:1023400053443D53544F500D0A0000001CB5012169
:10235000102002F02DF83C20009000208DF80400A1
:1023600001208DF8070002208DF8050069465648C7
:1023700000F0BAFC3C21544800F034FD1CBD0EB501
:10238000FFF7E4FF0121880302F06CF8022104202A
:1023900001F0FBFD0321042001F0F7FD04210846B4
:1023A00001F0F3FD0521042001F0EFFD3C20009039
:1023B00000208DF804000C208DF8050001208DF818
:1023C0000600684602F02AFB08208DF8080003206A
:1023D0008DF8090000208DF80A0001208DF80B000F
:1023E00002A800F090FB09208DF8080003208DF86A
:1023F000090001208DF80A008DF80B0002A800F0FA
:1024000082FB0A208DF8080003208DF809000220C5
:102410008DF80A0001208DF80B0002A800F073FB74
:1024200017208DF8080003208DF809008DF80A00A8
:1024300001208DF80B0002A800F065FB0EBD10B561
:102440000421214800F0B2FC30B90C210020FEF735
:10245000B9FC1EA002F09EFD042002F050FB10BD4E
:1024600010B50821184800F0A1FC30B90C2100205B
:10247000FEF7A8FC15A002F08DFD082002F03FFB3E
:1024800010BD10B51021104800F090FC30B90C219F
:102490000120FEF797FC0DA002F07CFD102002F059
:1024A0002EFB10BD10B52021074800F07FFC30B98D
:1024B0000C210020FEF786FC04A002F06BFD20201A
:1024C00002F01DFB10BD0000001002406C696D6938
:1024D0007400000010B504466FF0040000F060FBCB
:1024E000E11704EB5171C1F3C701504A1170104656
:1024F000007800EB4001C1EBC0104FF6FF7101EA1C
:10250000C0004B49088010BD0146484A12784A4332
:102510004FF0E0235A6100229A611A46126942F094
:1025200001021A6100BF4FF0E022106900F00102C1
:102530001AB100F48032002AF5D04FF0E02212697F
:1025400022F001024FF0E0231A6100229A617047E5
:102550000146374A12884A434FF0E0235A6100226D
:102560009A611A46126942F001021A6100BF4FF0E7
:10257000E022106900F001021AB100F48032002A52
:10258000F5D04FF0E022126922F001024FF0E02373
:102590001A6100229A61704770B504464FF40770C3
:1025A00094FBF0F0C6B24FF4077094FBF0F100FB1F
:1025B000114085B205E04FF40770FFF7C9FF701EA8
:1025C000C6B2002EF7D115B12846FFF7C1FF70BD86
:1025D00070B504460E46154666602570154800F035
:1025E0006BFF80B2A060012070BD10B5044620785A
:1025F000012818D16068B0B10E4800F05DFF00F509
:102600007A70A168401A4FF47A71B0FBF1F201FBC5
:1026100012006168884206D3064800F04DFF80B280
:10262000A060012010BD0020FCE70000A4000020F5
:10263000A60000200010004000BF704700BFFE4A07
:10264000128802F04002002AF9D0C2B2FA4B9A80F6
:10265000704710B504462CB14FF48071F74800F074
:10266000C1FB04E04FF48071F44800F0B9FB10BDE9
:1026700010B596B004460121084601F099FE0121EB
:10268000880501F095FE0121102001F0EBFE0722E4
:102690000921EA4800F0B3FB07220A21E74800F0CD
:1026A000AEFB4FF4C060149002208DF8540003205C
:1026B0008DF8550000208DF8560001208DF8570048
:1026C00014A9DE4800F010FB4FF480701490022033
:1026D0008DF8550000208DF8560001208DF8570028
:1026E00014A9D64800F000FBD34800F0C1FB1094B9
:1026F0000020ADF84400ADF84600ADF84800ADF854
:102700004C000C20ADF84A0010A9CB4800F017FC93
:1027100025208DF83C0002208DF83D0001208DF829
:102720003E008DF83F000FA800F0EDF944208DF831
:102730003C0002208DF83D008DF83E0001208DF810
:102740003F000FA800F0DFF9012240F22441BA480F
:1027500000F033FD01224021B74800F025FDB848C4
:1027600001F07AFF4FF000600090B348001D019027
:10277000B448029000200390C820049000200590E7
:102780004FF48060069000200790089009904FF465
:1027900040300A9003200C9000200D900E90694666
:1027A000A74801F0FBFF0121A54802F031F8012103
:1027B000A14800F04CFC0120FFF74BFF16B010BD04
:1027C00010B540F224419C4800F032FDE0B10120F8
:1027D0009D49087000219A4802F01AF8984802F0C2
:1027E0003AF8C0F1C800994908809949944802F024
:1027F00088F8C821924802F02CF80121904802F094
:1028000007F88D4800F052FC40F227718A4800F02A
:10281000F9FC28B9002240F22661874800F0CDFC7F
:1028200010BD10B504462CB14FF48061894800F00A
:10283000D9FA04E04FF48061864800F0D1FA10BD67
:1028400010B596B004460121082001F0B1FD012128
:10285000880401F0F6FD072209217E4800F0CFFA36
:10286000072208217B4800F0CAFA4FF44070149008
:1028700002208DF8540003208DF8550000208DF8BB
:10288000560001208DF8570014A9724800F02CFA68
:102890004FF48060149002208DF8550000208DF8D0
:1028A000560001208DF8570014A96A4800F01CFA60
:1028B000694800F0DDFA10940020ADF84400ADF84E
:1028C0004600ADF84800ADF84C000C20ADF84A00C9
:1028D00010A9614800F033FB27208DF83C0002204E
:1028E0008DF83D0001208DF83E008DF83F000FA8C7
:1028F00000F009F90C208DF83C0002208DF83D0015
:102900008DF83E0001208DF83F000FA800F0FBF885
:10291000012240F22441504800F04FFC01224021A6
:102920004D4800F041FC0121480501F041FD4B48B4
:1029300001F092FE4FF0006000904748001D0190AA
:102940004748029000200390322004900020059018
:102950004FF48060069000200790089009904FF493
:1029600040300A9003200C9000200D900E90694694
:102970003A4801F013FF0121384801F049FF0121D5
:10298000354800F064FB0120FFF74BFF16B010BD87
:1029900010B540F22441304800F04AFC002843D0F2
:1029A00000212E4801F034FF2C4801F054FFC0F103
:1029B000C8002C49097801EBC10101EB4101284A0B
:1029C00002EB4101488601202649097801EBC1014B
:1029D00001EB410102EB410181F8340022491F481B
:1029E00001F08FFF1F480078401C1E490870084600
:1029F0000078052801DB002008703221174801F01B
:102A000028FF1848007800EBC00000EB4000144994
:102A100001EB400011492839486301210F4801F0BA
:102A2000F7FE0D4800F042FB40F227710A4800F023
:102A3000E9FB00BB002219E0001001400000024049
:102A4000886402403C020020AE000020AC00002060
:102A500000080020000C02400048004028600240AE
:102A60003A030020AF0000200008001040F2266169
:102A7000104800F0A2FB10BD70B5044600250CE024
:102A800000BF0C48008800F040000028F9D028461C
:102A90006D1C215C074800F005FB605D0028EFD14C
:102AA00070BD014601EBC10000EB4000024A02EBA1
:102AB00040007047004800403A0300200948804722
:102AC00009480047FEE7FEE7FEE7FEE7FEE7FEE710
:102AD000FEE7FEE7FEE7FEE704480549054A064B28
:102AE00070470000A903000889010008A80400201D
:102AF000A80A0020A8060020A806002032490143A9
:102B0000324A1160704770B5002100230F22C4784B
:102B10001CB32E4C246804F4E064C4F5E064C4F3F0
:102B20000721C1F10404E3B20A4144789C40E1B2B8
:102B30008478144021430C07210E254C05786155FB
:102B4000047804F01F050124AC4005786D11AD0038
:102B500005F1E025C5F8004109E0047804F01F05FF
:102B60000124AC401B4D0678761145F8264070BD17
:102B7000194A0A400243154B1B1F1A60704739B1AE
:102B8000124A121D12680243104B1B1D1A6006E008
:102B90000E4A121D126882430C4B1B1D1A607047AF
:102BA000042808D14FF0E021096941F004014FF0F9
:102BB000E022116107E04FF0E021096921F00401F2
:102BC0004FF0E022116170470000FA050CED00E0C3
:102BD00000E400E080E100E080FFFF1F10B5044644
:102BE0009848844208D10121084601F04CFC00219C
:102BF000012001F048FC76E09348844208D101218D
:102C0000022001F040FC0021022001F03CFC6AE0BF
:102C10008E48844208D10121042001F034FC0021B7
:102C2000042001F030FC5EE08948844208D1012193
:102C3000082001F028FC0021082001F024FC52E0CB
:102C40008448844208D10121102001F01CFC00219D
:102C5000102001F018FC46E07F48844208D1012191
:102C6000202001F010FC0021202001F00CFC3AE0B3
:102C70007A48844208D10121402001F004FC00215F
:102C8000402001F000FC2EE07548844208D101216B
:102C9000802001F0F8FB0021802001F0F4FB22E00D
:102CA0007048844208D10121801501F0ECFB00211D
:102CB000A01501F0E8FB16E06B48844208D1012121
:102CC000401501F0E0FB0021601501F0DCFB0AE09B
:102CD0006648844207D10121001501F0D4FB002190
:102CE000201501F0D0FB10BDF0B50A4600210023ED
:102CF000002400BF3DE0012505FA01F3156805EA4F
:102D000003049C4234D105684F000326BE40B543FE
:102D1000056015794E00B5400668354305601579A4
:102D2000012D02D01579022D16D185684F0003269A
:102D3000BE40B543856055794E00B5408668354341
:102D40008560456801268E40B543456045689679A3
:102D50008E40B6B235434560C5684F000326BE407D
:102D6000B543C560D5794E00B540C6683543C560EA
:102D7000491C1029BFD3F0BD4FF6FF71016000213F
:102D8000017141718171C171704708B54FF4803292
:102D90000092009A0A430092009AC261C161009AAF
:102DA000C261C2690092C269009208BD0246002059
:102DB00013690B400BB1012000E000207047014671
:102DC000086980B270470246002053690B400BB17E
:102DD000012000E0002070470146486980B270473A
:102DE00001837047418370470AB1018300E041834A
:102DF00070474161704742694A4042617047F0B58F
:102E0000002300244D07ED0E02FA05F3CE1000F169
:102E1000200555F826504E07F70E0F26BE40B54345
:102E2000CF1000F1200646F82750CE1000F1200503
:102E300055F8265045EA0304CE1000F1200545F868
:102E40002640F0BD0000024000040240000802409D
:102E5000000C024000100240001402400018024022
:102E6000001C0240002002400024024000280240D2
:102E700010B50446FA48844208D10121102001F01F
:102E800046FB0021102001F042FB57E0F548844248
:102E900009D10121480401F029FB00214FF4003041
:102EA00001F024FB4AE0F048844209D10121880462
:102EB00001F01CFB00214FF4802001F017FB3DE0E6
:102EC000EA48844209D10121C80401F00FFB002126
:102ED0004FF4002001F00AFB30E0E548844209D1BC
:102EE0000121080501F002FB00214FF4801001F0E0
:102EF000FDFA23E0DF48844208D10121202001F0BF
:102F000006FB0021202001F002FB17E0DA48844292
:102F100009D10121880701F0E9FA00214FF0804032
:102F200001F0E4FA0AE0D548844207D101214005C6
:102F300001F0DCFA0021600501F0D8FA10BD2DE99E
:102F4000FF4705460E460024A14600BFA046B089B3
:102F500000B100BF2C8A24F44054F08804432C8232
:102F6000AC8941F20C608443B0883189084371898F
:102F700008430443AC81AC8A24F44074B089044310
:102F8000AC82684601F043F9B548854202D0B948A1
:102F9000854202D1DDF80C9001E0DDF80890A889A7
:102FA00000F4004040B109EBC90000EB09103168A2
:102FB0004900B0FBF1F707E009EBC90000EB09108D
:102FC00031688900B0FBF1F76420B7FBF0F0040131
:102FD0002009642101FB1078A88900F4004040B169
:102FE000322000EBC800B0FBF1F000F00700044312
:102FF00008E0322000EB08106421B0FBF1F000F093
:103000000F0004432C81BDE8FF874FF41651016087
:1030100000218180C18001810C21418100218181B9
:10302000704710B502460020108A20F470600B88AB
:103030004C8823438C882343CC8823431843108235
:1030400010BD0021018041808180C180704721B185
:10305000828942F40052828104E082894DF6FF7336
:103060001A4082817047028B02F47F420283028BF6
:103070000A430283704721B1828942F4004282816F
:1030800003E08289C2F30E028281704721B1828AF5
:1030900042F40062828204E0828A4FF2FF731A4097
:1030A00082827047C1F30802828070470146888897
:1030B000C0F308007047028A4FF6F0731A4002828C
:1030C000028A0A430282704721B1828942F00202D9
:1030D000828104E082894FF6FD731A408281704735
:1030E00082894FF2FF731A40828182890A4382816A
:1030F0007047028A4FF6DF731A400282028A0A433F
:103100000282704721B1028A42F48042028204E0C6
:10311000028A4BF6FF731A4002827047818941F0A0
:1031200001018181704721B1828A42F008028282C6
:1031300004E0828A4FF6F7731A4082827047028B4E
:10314000D2B20283028B42EA01220283704721B18C
:10315000828A42F02002828204E0828A4FF6DF7384
:103160001A408282704721B1828A42F01002828224
:1031700004E0828A4FF6EF731A4082827047828A97
:103180004FF6FB731A408282828A0A43828270471A
:1031900021B1828A42F00202828204E0828A4FF6E2
:1031A000FD731A40828270471AB1838A0B4383826F
:1031B00002E0838A8B4383827047F0B50346002484
:1031C00000260025002040F66A17B94200D100BF52
:1031D0001846C1F3421401F01F06012707FA06F54D
:1031E000012C01D10C3004E0022C01D1103000E0A0
:1031F00014301AB107682F43076002E00768AF4335
:103200000760F0BD02460020B1F5007F00D100BF8D
:1032100013880B400BB1012000E00020704701F43F
:103220000072B2F5007F00D100BFCA430280704730
:1032300070B50246002400230025002040F66A16DF
:10324000B14200D100BFC1F3421501F01F030126B6
:1032500006FA03F3012D13D19689334017E00000DD
:10326000001001400044004000480040004C004075
:10327000005000400014014000780040007C0040F5
:10328000022D02D1168A334001E0968A33400C1297
:10329000012606FA04F41688344013B10CB101205B
:1032A00000E0002070BD10B50022002340F66A1433
:1032B000A14200D100BF0A1201249440A3B2DC4312
:1032C000048010BD10B50446FE48844208D1012197
:1032D000084601F01CF90021012001F018F99DE0D9
:1032E000B4F1804F08D10121084601F0FFF8002118
:1032F000012001F0FBF891E0F348844208D101215C
:10330000022001F0F3F80021022001F0EFF885E03F
:10331000EE48844208D10121042001F0E7F80021A1
:10332000042001F0E3F879E0E948844208D1012162
:10333000082001F0DBF80021082001F0D7F86DE04B
:10334000E448844208D10121102001F0CFF8002187
:10335000102001F0CBF861E0DF48844208D1012160
:10336000202001F0C3F80021202001F0BFF855E033
:10337000DA48844208D10121022001F0C8F8002176
:10338000022001F0C4F849E0D548844209D1012166
:10339000080401F0BCF800214FF4803001F0B7F8C8
:1033A0003CE0D048844209D10121480401F0AFF843
:1033B00000214FF4003001F0AAF82FE0CA488442FF
:1033C00009D10121880401F0A2F800214FF48020E6
:1033D00001F09DF822E0C548844208D10121402037
:1033E00001F084F80021402001F080F816E0C04888
:1033F000844208D10121802001F078F8002180204A
:1034000001F074F80AE0BB48844207D1012180151D
:1034100001F06CF80021A01501F068F810BD002241
:103420000288A84B98420ED0AC4B98420BD0B0F11A
:10343000804F08D0A44B984205D0A44B984202D0AC
:10344000A34B984204D14FF68F731A404B881A430E
:10345000A04B984207D0A04B984204D04FF6FF43B0
:103460001A400B891A4302804B68C3620B8803859C
:10347000944B984202D0994B984201D18B7A0386A3
:103480000123838270474FF0FF31416000210180AA
:1034900001814180817270470185828270470A46AE
:1034A000002101884FF68F73194011430180704746
:1034B00041627047C16270470146486A70470146E1
:1034C000088D704721B1028842F00202028004E0B8
:1034D00002884FF6FD731A400280704721B10288BE
:1034E00042F00402028004E002884FF6FB731A40A7
:1034F0000280704721B1028842F08002028004E01D
:1035000002884FF67F731A400280704702884FF698
:10351000F7731A40028002880A43028070470288CB
:103520004FF6FF431A40028002880A430280704728
:1035300021B1028842F00102028004E002884FF6C5
:10354000FE731A400280704770B5002400220023E9
:10355000058C4FF6FE7635400584028C8388048BFB
:103560004FF68F752C40B51E2C400D882C43751ED0
:103570002A408D892A434D882A43524DA84202D0C1
:10358000564DA84213D14FF6F7752A40CD892A43EC
:103590004FF6FB752A408D882A434FF6FF652B4076
:1035A0004FF6FF552B400D8A2B434D8A2B438380CA
:1035B00004838D684563028470BD70B500240022C9
:1035C0000023058C4FF6EF7635400584028C838806
:1035D000048B48F6FF752C404FF6FF452C400D88B4
:1035E0004FF6FF7606EA05252C434FF6DF752A4095
:1035F0008D8906EA05152A434D8806EA05152A43F2
:10360000304DA84202D0354DA8421DD14FF67F75EE
:103610002A40CD894FF6FF7606EA05152A434FF674
:10362000BF752A408D8806EA05152A434FF6FF35F7
:103630002B404FF2FF752B400D8A06EA85052B4380
:103640004D8A06EA85052B43838004838D68856354
:10365000028470BD70B5002400220023058C4FF653
:10366000FF6635400584028C8388848B4FF68F7506
:103670002C404FF6FC752C400D882C434FF6FF551F
:103680002A408D894FF6FF7606EA05252A434D88A4
:1036900006EA05252A430B4DA84202D00F4DA84249
:1036A00038D14FF2FF752A40CD894FF6FF7606EAF2
:1036B00005252A434FF6FF352A408D8806EA052561
:1036C0002A4319E0000001400004004000080040C7
:1036D000000C0040001000400014004000040140B5
:1036E00000400140004401400048014000180040F3
:1036F000001C0040002000404EF6FF752B404DF6A8
:10370000FF752B400D8A06EA05152B434D8A06EA04
:1037100005152B43838084838D68C563028470BD47
:1037200070B5002200230024058C4EF6FF7635404C
:103730000584038C8488828B48F6FF752A404FF6F7
:10374000FF452A400D884FF6FF7606EA05252A43F5
:103750004DF6FF752B408D8906EA05352B434D88C4
:1037600006EA05352B43FE4DA84202D0FD4DA84286
:1037700008D14BF6FF752C400D8A4FF6FF7606EA0E
:1037800085152C43848082838D680564038470BD15
:10379000002101804180818081608181C18101821D
:1037A0004182704770B50346002000241846183047
:1037B00001258D40ACB21D8CA5431D8409B108299B
:1037C0000AD100EB610005684FF68F763540056041
:1037D0000568154305600FE00D1FC5F34E0528442D
:1037E000056848F6FF763540056005684FF6FF76B8
:1037F00006EA02263543056070BD41637047816368
:103800007047C1637047016470470A460021018B0D
:103810004FF68F7319401143018370470A46002108
:10382000018B48F6FF7319404FF6FF7303EA02233A
:103830001943018370470A460021818B4FF68F732D
:1038400019401143818370470A460021818B48F655
:10385000FF7319404FF6FF7303EA02231943818374
:1038600070470A460021018B4FF6F7731940114348
:10387000018370470A460021018B4FF2FF73194004
:103880004FF6FF7303EA02231943018370470A4688
:103890000021818B4FF6F7731940114381837047E4
:1038A0000A460021818B4FF2FF7319404FF6FF73D8
:1038B00003EA02231943818370470A460021018BE2
:1038C0004FF6FB7319401143018370470A460021EC
:1038D000018B4FF6FF3319404FF6FF7303EA0223C3
:1038E0001943018370470A460021818B4FF6FB7311
:1038F00019401143818370470A460021818B4FF69E
:10390000FF3319404FF6FF7303EA02231943818303
:1039100070470A460021018B4FF67F73194011430F
:10392000018370470A460021018BC1F30E014FF657
:10393000FF7303EA02231943018370470A460021FB
:10394000818B4FF67F7319401143818370470A467C
:103950000021818BC1F30E014FF6FF7303EA0223AE
:103960001943818370470A460021018C4FF6FD738D
:1039700019401143018470470A460021018C4FF61B
:10398000F77319401143018470470A460021018CE6
:103990004FF6DF7319404FF6FF7303EA0213194322
:1039A000018470470A460021018C4FF67F7319404D
:1039B0004FF6FF7303EA02131943018470470A4666
:1039C0000021018C4FF6FF5319404FF6FF7303EAB5
:1039D00002231943018470470A460021018C4FF2EB
:1039E000FF7319404FF6FF7303EA02231943018462
:1039F00070470A460021018C4DF6FF7319404FF6BF
:103A0000FF7303EA023319430184704730B5002382
:103A100001248C40A3B2048C9C430484048C02FADD
:103A200001F5ADB22C43048430BD30B5002304242D
:103A30008C40A3B2048C9C430484048C02FA01F5EC
:103A4000ADB22C43048430BD828B4FF2FF331A4059
:103A50008283828B4FF6FF7303EA01231A4382832A
:103A60007047F0B50C461546002100220026078C51
:103A70004EF6FF7C07EA0C070784818B028C4FF619
:103A8000FF7707EA043640F6FF4739404FF6FF77E5
:103A900007EA052739434FF6FF7707EA033739432B
:103AA00045F6FF773A4046F480573A4381830284D3
:103AB000F0BD828B4FF6F3731A408283828B0A43E8
:103AC00082837047F0B50C4615460021002200267F
:103AD000078C4FF6FF6C07EA0C070784818B028C7A
:103AE0004FF6FF7707EA04264FF60C7739404FF67A
:103AF000FF7707EA03172F4339434FF2FF573A4046
:103B000046F480773A4381830284F0BD028B4FF202
:103B1000FF331A400283028B4FF6FF7303EA01233F
:103B20001A4302837047F0B50C4615460021002267
:103B30000026078C4FF6EF7C07EA0C070784018B01
:103B4000028C4FF6FF7707EA041640F6FF4739402C
:103B50004FF6FF7707EA033739434FF6FF7703E065
:103B6000000001400004014007EA052739434FF6F1
:103B70005F773A4046F010073A4301830284F0BD74
:103B8000028B4FF6F3731A400283028B0A430283BF
:103B90007047F0B50C46154600210022068C4FF602
:103BA000FE773E400684018B028C4FF60C76314046
:103BB0007E1C06EA03162E4331434FF6F57632405B
:103BC00044F00106324301830284F0BD70B505461E
:103BD0000C46208850B92389A28861882846FFF7BF
:103BE000D8FFE1882846FFF7CBFF25E0208804288E
:103BF0000AD12389A28861882846FFF794FFE188CB
:103C00002846FFF783FF17E0208808280AD1238978
:103C1000A28861882846FFF755FFE1882846FFF70C
:103C200048FF09E02389A28861882846FFF719FF29
:103C3000E1882846FFF708FF70BD00210180418020
:103C4000012181800021C180018170472DE9F0416F
:103C500005460C4600260127608808B9022600E0C8
:103C60000026A088012801D1022700E00127208832
:103C7000A0B92389A28861882846FFF78AFFE188D6
:103C80002846FFF77DFF23893A4631462846FFF74D
:103C90004AFFE1882846FFF739FF13E02389A2880D
:103CA00061882846FFF73FFFE1882846FFF72EFF8F
:103CB00023893A4631462846FFF76BFFE1882846BC
:103CC000FFF75EFFBDE8F0810146486B7047014693
:103CD000886B70470146C86B70470146086C704797
:103CE0000A884B881A438B881A43CB881A430B895E
:103CF0001A434B891A438B891A43A0F84420704712
:103D00000021018041808180C180018141818181C8
:103D1000704731B1B0F8442042F40042A0F844208A
:103D200005E0B0F84420C2F30E02A0F8442070472A
:103D300021B1828842F00402828004E082884FF63A
:103D4000FB731A408280704721B1828842F00102E1
:103D5000828004E082884FF6FE731A4082807047AA
:103D60001AB183890B43838102E083898B4383816A
:103D700070478182704702460020138A0B400BB1C6
:103D8000012000E000207047CA430282704730B52E
:103D90000246002000230024158A05EA01039589C4
:103DA00005EA010413B10CB1012000E0002030BD90
:103DB000CA430282704741EA0203A0F848307047C4
:103DC0001AB183890B43838102E083898B4383810A
:103DD000704721B1828842F00802828004E0828824
:103DE0004FF6F7731A408280704701894FF6F872D8
:103DF0001140018170470A46002101894FF68F73F7
:103E0000194011430181704730B504460D462946DB
:103E10002046FFF7F0FF208940F00700208130BDE9
:103E20002DE9F04104460D4616461F46602D06D189
:103E30003B46012231462046FFF775FE05E03B4632
:103E4000012231462046FFF7A4FE29462046FFF70F
:103E5000D2FF208940F007002081BDE8F08130B515
:103E60000C4600210189C9B24FF6FF7505EA03250A
:103E7000154325432943018130BD2DE9F041054615
:103E80000E4617469846002443463A463146284691
:103E9000FFF7E5FF2C894FF6F870044044F0070463
:103EA0004FF68F70044044F070042C81BDE8F0811F
:103EB000F0B504460D4616461F463B463246294697
:103EC0002046FFF7CCFF208940F480402081F0BDE0
:103ED00082884FF68F731A40828082880A438280DC
:103EE000704702894FF6F8731A40028102890A432B
:103EF0000281704702894FF67F731A40028102895E
:103F00000A4302817047F0B50C4615461E46002153
:103F1000002200230189028B038C4FF6F877394089
:103F200021434FF6FC473A4040F201173A434FF61F
:103F3000DD773B404FF6FF7707EA06172F433B43F9
:103F4000018102830384F0BD21B1828842F08002A6
:103F5000828004E082884FF67F731A408280704727
:103F6000A0F850107047000010B50121880300F040
:103F7000CEFA00214FF4804000F0C9FA10BD1C4970
:103F8000086070471B490862704730B500228B07F4
:103F90001C0F0F2303FA04F2154B08338C1053F84F
:103FA00024309343124C08348D1044F825302346B6
:103FB0008C1053F824308C07240F00FA04F42343A8
:103FC0000B4C08348D1044F8253030BD0949DC31E4
:103FD0000860704708490860704700200449203194
:103FE000096801F4807109B1012000E000207047E8
:103FF000003801400000274200042742F9480068C9
:1040000040F00100F74908600020F64908310860D7
:10401000F4480068F4490840F2490860F348091D73
:104020000860F348EF4984310860F0481038091DF2
:104030000860EC48006820F48020EA49086000200D
:10404000E8490C310860E7498C310860704700216D
:10405000E44A921C117011460870704710B5014671
:104060000022002300204A11012A02D1DD4C2368DE
:1040700008E0022A03D1DB4C7034236802E0D94CFB
:104080007434236801F01F02012494401C400CB1D9
:10409000012000E0002010BD38B500200090002471
:1040A000002500BF3120FFF7D9FF05460098401CCE
:1040B00000900098B0F5A04F01D0002DF2D0312033
:1040C000FFF7CCFF08B1012400E00024204638BDF2
:1040D00001460020C34A106820F0F80040EAC10001
:1040E00010607047C349086070470021BD4A7032B4
:1040F00011701170012802D004280AD104E00121B6
:10410000B84A7032117005E00521B64A703211705C
:1041100000E000BF00BF7047B7490860704770B546
:10412000049C41EA82150126C6EB530645EA064582
:10413000054345EA0465AB4E361D356070BDAD499B
:1041400008667047820142EA0172A64B84331A6006
:104150007047A8498866704710B5830143EA016338
:1041600043EA02739F4C8834236010BDA14908675D
:104170007047A049C864704702460020994B083335
:10418000186820F0EC6042EA01031843954B0833AD
:104190001860704702460020924B0833186820F0E0
:1041A000784042EA010318438E4B08331860704789
:1041B000014600208B4A0832106820F003000843B3
:1041C0001060704787480830006800F00C007047A6
:1041D00001460020834A0832106820F0F0000843AE
:1041E00010607047014600207E4A0832106820F4B3
:1041F000E05008431060704701460020794A0832B9
:10420000106820F4604040EAC10010607047F0B5CB
:10421000002100220024022500260223714F0837C6
:104220003F6807F00C0121B1042905D0082937D1D6
:1042300005E0724F076036E0714F076033E0694F69
:104240003F1D3F68C7F38056664F3F1D3F6807F02C
:104250003F036EB16A4FB7FBF3F7DFF888C10CF18B
:10426000040CDCF800C0CCF3881C07FB0CF40CE059
:10427000624FB7FBF3F7DFF86CC10CF1040CDCF80C
:1042800000C0CCF3881C07FB0CF4564F3F1D3F6861
:10429000C7F301477F1C7D00B4FBF5F7076002E020
:1042A000564F076000BF00BF4E4F08373F6807F00A
:1042B000F0010909534F7A5C0768D7404760494FBE
:1042C00008373F6807F4E051890A4E4F7A5C476827
:1042D000D7408760434F08373F6807F46041490B78
:1042E000484F7A5C4768D740C760F0BD002100F4B2
:1042F0004072B2F5407F0AD13A4A0832116821F47F
:10430000F811414A02401143364A08321160354AD9
:1043100070321268C0F30B031A43324B70331A60C9
:10432000704735494439086070473349403908605F
:10433000704736490860704701460020294A8C3290
:10434000106820F01F004A1E1043264A8C3210606D
:10435000704701460020234A8C32106820F4F85040
:104360004A1E40EA02201F4A8C3210607047014604
:1043700000201C4A8C32106820F440100843106062
:10438000704701460020174A8C32106820F4400024
:1043900008431060704701460020124A8C321068B2
:1043A00020F4403008431060704719490860704796
:1043B00039B10C4A3032126802430A4B30331A606A
:1043C00006E0084A303212688243064B30331A60E6
:1043D0007047F9B1034A343212680243014B343357
:1043E0001A601CE000380240FFFFF6EA103000249B
:1043F0000030002000004742800E47420024F400B5
:1044000000127A00B0000020FFFCFF0F5C01474261
:10441000E01147428F4A126882438E4B1A60704700
:1044200039B18C4A121D126802438A4B1B1D1A6057
:1044300006E0884A121D12688243864B1B1D1A60D3
:10444000704739B1834A0C3212680243814B0C33F6
:104450001A6006E07F4A0C32126882437D4B0C33AF
:104460001A60704739B17B4A103212680243794BA7
:1044700010331A6006E0774A103212688243754B97
:1044800010331A60704739B1724A243A12680243F5
:10449000704B243B1A6006E06E4A243A126882434D
:1044A0006C4B243B1A60704739B16A4A203A126853
:1044B0000243684B203B1A6006E0664A203A1268C5
:1044C0008243644B203B1A60704739B1614A1C3A01
:1044D000126802435F4B1C3B1A6006E05D4A1C3ABF
:1044E000126882435B4B1C3B1A60704739B1594AD2
:1044F000143A12680243574B143B1A6006E0554ABF
:10450000143A12688243534B143B1A60704739B116
:10451000504A103A126802434E4B103B1A6006E0B4
:104520004C4A103A126882434A4B103B1A6070475B
:1045300039B1484A1C3212680243464B1C331A6098
:1045400006E0444A1C3212688243424B1C331A6014
:10455000704739B13F4A2032126802433D4B203345
:104560001A6006E03B4A203212688243394B2033FE
:104570001A60704739B1374A243212680243354B0A
:1045800024331A6006E0334A243212688243314BE6
:1045900024331A60704739B12E4A2C321268024314
:1045A0002C4B2C331A6006E02A4A2C3212688243C4
:1045B000284B2C331A60704739B1264A30321268C2
:1045C0000243244B30331A6006E0224A303212682C
:1045D0008243204B30331A607047012808D11D49AF
:1045E0003C31096841F008011A4A3C32116007E089
:1045F00018493C31096821F00801164A3C32116023
:10460000704739B1134A273A12780243114B273BBE
:104610001A7006E00F4A273A127882430D4B273B67
:104620001A7070470B484030006840F080700949AC
:1046300040310860704701460020064A283A126857
:104640000A400AB1012000E00020704701492639E4
:104650000870704734380240016821F001010160A0
:104660000021016041608160C160016121214161DF
:10467000DB49884204D13D21D94A103A91608CE04F
:10468000D7491831884205D14FF47461D44A103AA1
:10469000916082E0D2493031884205D14FF47411E3
:1046A000CF4A103A916078E0CD494831884205D12F
:1046B0004FF07461CA4A103A91606EE0C8496031A7
:1046C000884204D1C749C64A103AD16065E0C4495E
:1046D0007831884204D1C449C14A103AD1605CE0C3
:1046E000BF499031884204D1C049BD4A103AD160D7
:1046F00053E0BB49A831884205D14FF03D51B84A3B
:10470000103AD16049E0BA49884204D13D21B84A03
:10471000083A116041E0B6491831884205D14FF49A
:104720007461B34A083A116037E0B14930318842C8
:1047300005D14FF47411AE4A083A11602DE0AC492E
:104740004831884205D14FF07461A94A083A116096
:1047500023E0A7496031884204D1A249A44A121F2C
:1047600011601AE0A2497831884204D19E49A04ADA
:10477000121F116011E09E499031884204D19B497B
:104780009B4A121F116008E09949A831884204D160
:104790004FF03D51964A121F1160704710B500222C
:1047A0000268944B1A40CC680B6823434C6923433E
:1047B0008C692343CC6923430C6A23434C6A23430B
:1047C0008C6A23434C6B23438C6B23431A43026054
:1047D000426922F00702D1E90B3423431A434261B4
:1047E0000B6943604B6883608B68C36010BD002118
:1047F000016041608160C160016141618161C161AD
:10480000016241628162C1620163416381637047F9
:1048100021B1026842F00102026003E0026822F066
:1048200001020260704721B1026842F40042026056
:1048300003E0026822F400420260704721B102687E
:1048400042F02002026003E0026822F020020260CF
:104850007047416070470146486880B2704722B196
:10486000036843F40023036003E0036823F4002398
:1048700003600161704721B1026842F48022026046
:1048800003E0026822F48022026070470AB10161ED
:1048900000E0C1607047014600200A6802F400226F
:1048A0000AB1012000E000207047014600200A689C
:1048B00002F001020AB1012000E000207047014629
:1048C00000204A6902F03800704730B503460A46B6
:1048D00000200024464DAB4202D24149103901E08C
:1048E0004349103902F000550DB14C6800E00C68E6
:1048F000414D2C4004EA02050DB1012000E00020EA
:1049000030BD02463A4B9A4202D23548103801E097
:104910003748103801F000531BB1374B0B40C360D0
:1049200002E0354B0B408360704710B501F0800307
:104930004BB122B1436943F08003436103E0436913
:1049400023F08003436180290BD02AB1036801F072
:104950001E042343036004E0036801F01E04A34324
:10496000036010BD70B50246002000240025204ED3
:10497000B24202D21A4B103B01E01D4B103B1F4EBE
:104980000E4036B11E2606EAD124166806EA040552
:1049900002E0566906F0800501F000560EB15C6831
:1049A00000E01C68144E344004EA010616B10DB153
:1049B000012000E0002070BD02460D4B9A4202D259
:1049C0000748103801E00A48103801F000531BB1C5
:1049D000094B0B40C36002E0074B0B4083607047FC
:1049E000106002403D000020400F002000003D20EC
:1049F000106402403F801CF07D0F7D0F3C0F3C0F88
:104A0000002041490860091D0860091D0860091D52
:104A100008603E483C4914310860704700213A491B
:104A20008279002A3AD00A46126803689A430B46F4
:104A30001A600A1D126803689A430B1D1A600279F6
:104A400011440A6803681A430A602F4A0832126840
:104A500003689A432C4B08331A601A1D12680368C6
:104A60009A43294B0C331A604279102A0ED11A1F2F
:104A7000126803681A43244B08331A601A1D12681F
:104A800003681A43204B0C331A600DE01E4942792B
:104A900011440A6803681A430A6005E00279114468
:104AA0000A6803689A430A60704700210160017137
:104AB0000C2141710021817170471349103109683F
:104AC0000143114A103211607047014600200E4A1E
:104AD000143212680A400AB1012000E00020704739
:104AE000094914310860704701460020064A143213
:104AF00012680A400AB1012000E000207047024914
:104B00001431086070470000003C0140FFFF7F0047
:104B100010B50446FB48844208D101218014FFF7F8
:104B2000F6FC0021A014FFF7F2FC3CE0F6488442BA
:104B300008D101210014FFF7D9FC00212014FFF750
:104B4000D5FC30E0F148844208D10121C013FFF7C1
:104B5000CDFC0021E013FFF7C9FC24E0EC488442BF
:104B600008D101214014FFF7D2FC00216014FFF7A7
:104B7000CEFC18E0E748844209D101210805FFF77F
:104B8000C6FC00214FF48010FFF7C1FC0BE0E248A7
:104B9000844208D101214805FFF7B9FC00214FF4F8
:104BA0000010FFF7B4FC10BD10B50022028802F41B
:104BB00041520B884C8823438C882343CC88234361
:104BC0000C8923434C8923438C892343CC89234379
:104BD0001A430280838B4FF2FF74234083830B8A36
:104BE000038210BD2DE9F04F0025022300244FF071
:104BF000010900220026002794469046B0F81CA028
:104C00004FF2400B0AEA0B0AA0F81CA04FF0020A70
:104C1000A0F820A0858BD1F808A0BAF1020F01D12D
:104C200000BF82E0B1F804A0BAF1000F02D14FF04A
:104C3000010901E04FF00209DFF8E0A2DAF800A074
:104C40000AF4000ABAF1000F09D0DFF8D0A2DAF8AE
:104C500000A02AF4000ADFF8C4B2CBF800A0DFF805
:104C6000BCA20AF17C0ADAF800A0CAF3881CDFF8BB
:104C7000ACA20AF17C0ADAF800A0CAF30278DFF8E5
:104C80009CA2AAF1040ADAF800A00AF03F07DFF8B4
:104C90008CA2AAF1040ADAF800A00AF4800ABAF594
:104CA000800F08D1DFF878A2BAFBF7FA0AFB0CFAFA
:104CB000BAFBF8F607E0DFF86CA2BAFBF7FA0AFBDA
:104CC0000CFABAFBF8F6B1F806A0BAF5007F0ED1DF
:104CD0004FEA162A0AEB8A0A4FEA4A0AD1F808B0C4
:104CE000BAFBFBFA0AF1050A1FFA8AF20FE04FEA53
:104CF000491AB6FBFAFA0AEB8A0A4FEA4A0AD1F8CD
:104D000008B0BAFBFBFA0AF1050A1FFA8AF24FF063
:104D10000A0AB2FBFAF202F00104A2EB040ACAF397
:104D20004F034FF6FF7A0AEA0424022B01DBFF2B24
:104D300001DD02230024B1F806A04AEA040A4AEA87
:104D4000030AA0F820A0B1F804A0B1F80CB04AEA18
:104D50000B0AB1F802B04AEA0B0AB1F800B04AEA0D
:104D60000B0A4AF4006A4AEA05058583BDE8F08F1C
:104D70000021018041808180C18001814181818148
:104D8000C18107210182704700210180418081801B
:104D9000C1800221816000218181704721B1028898
:104DA00042F04002028004E002884FF6BF731A40CE
:104DB0000280704721B1828B42F48062828304E0DA
:104DC000828B4FF6FF331A408283704702884FF27E
:104DD000FF731A40028002880A4302807047B1F5CF
:104DE000804F04D1028842F48042028004E00288AD
:104DF0004BF6FF731A40028070474FF6FF629142F4
:104E000004D0028842F48072028004E002884FF6E7
:104E1000FF631A400280704721B1828842F0040289
:104E2000828004E082884FF6FB731A4082807047CC
:104E300021B1828842F01002828004E082884FF61D
:104E4000EF731A408280704730B500220023848BB4
:104E50004FF240052C40848302240484828B0C880A
:104E6000B4F5007F01D00C8814B94FF4807308E0CA
:104E70000C88B4F5407F03D00C88B4F5807F00D156
:104E800000238C888D892C434D882C431C4344F48B
:104E900000642243828330BD014688897047818146
:104EA000704721B1028842F40052028004E0028877
:104EB0004DF6FF731A4002807047018841F480511B
:104EC0000180704702460020012901D0108B00E0CC
:104ED000908A70470146088A70471AB183880B434D
:104EE000838002E083888B438380704730B5002441
:104EF00000230C110125A540ABB2AAB185881D4342
:104F0000858014E00030014000380040003C004043
:104F10000034014000500140005401400838024074
:104F200000127A000024F40085889D43858030BDFE
:104F30000246002013890B400BB1012000E0002045
:104F40007047CA4302817047F0B502460020002432
:104F50000023002501F00F070126BE40B4B20B115B
:104F600001269E40B3B2968806EA030516892640BC
:104F700016B10DB1012000E00020F0BD10B50022F7
:104F800001F00F040123A3409AB2D343038110BD63
:104F9000704700000FB4044910B503AA029800F04E
:104FA00045FC10BC5DF814FBA80000200FB41CB534
:104FB000074B06AA7B4469460090059800F007FC61
:104FC0000020694600F016FC1CBC5DF814FB0000D4
:104FD0003D0800002DE9F0410E4604460020206205
:104FE0002046E168884730B3252805D0D4E901215F
:104FF0009047206A401CF2E7E16820460027884776
:10500000050018D0A5F14100192802D820354FF429
:1050100000673246294620462760FBF7EFF840B18B
:10502000012804D0F61D26F007060836D8E7361DFD
:10503000D6E72846DAE7206ABDE8F08170B50C466D
:105040000546012A05D02878800600D5EA690023A4
:1050500002E0012305E05B1C934202D2E05C0028E1
:10506000F9D1A869E618C01AA861286A184428620C
:105070002846AFF3008004E0D5E9012114F8010BC4
:105080009047B442F8D32846AFF3008070BD0000CB
:105090002DE9F0410646002410687529314616A511
:1050A00010D0AFF30080002802DA404213A507E0D9
:1050B00031688A0701D512A502E0490704D511A578
:1050C000012401E0AFF3008000210A2206F1240749
:1050D00009E0B0FBF2FCB0FBF2F302FB1C00303045
:1050E00078541846491C0028F3D123462A463046F6
:1050F000BDE8F04100F0FFB8000000002D00000006
:105100002B000000200000000FB400B58DB010A9E6
:10511000099000910B904FF0FF300A9000200C9006
:10512000064878440690064878446A4607900F99E6
:1051300009A800F0E5FD0DB05DF814FBFB0B0000C5
:10514000130C000030B505460B462A4613F8014BF8
:1051500012F8010B08B1A042F8D01CB1002802D00F
:105160006D1CF1E7284630BD10B5431C02E010F875
:10517000011B71B18107FAD14FF0013202C88C1ABC
:105180008C4314EAC211F9D0C01A0A0603D0C01E1B
:1051900010BDC01A10BD0A0401D0801E10BD090246
:1051A000FCD0401E10BD40EA010370B59B072ED114
:1051B0004FF00136042A2AD308C810C99D1B9D430D
:1051C000121F15EAC61517D0D8B2E1B2401A50EA3C
:1051D000056110D198B2A1B2401A50EA05410AD136
:1051E00023F07F4024F07F41401A50EA052102D18C
:1051F000180EA0EB146070BDA342DBD018BA21BA20
:10520000884201D9012070BD4FF0FF3070BD0AB94E
:10521000002070BD10F8013B11F8014B63B1A342AF
:105220000AD1521E08D010F8013B11F8014B1BB1F6
:10523000A34201D1521EEDD1181B70BD10B5203A0A
:10524000C0F00B80B1E81850203AA0E81850B1E83F
:105250001850A0E81850BFF4F5AF5FEA027C24BFF5
:10526000B1E81850A0E8185044BF18C918C0BDE8EC
:1052700010405FEA827C24BF51F8043B40F8043BB5
:1052800008BF7047D20728BF31F8023B48BF11F86A
:10529000012B28BF20F8023B48BF00F8012B7047C4
:1052A0004FF0000200B5134694469646203922BFBF
:1052B000A0E80C50A0E80C50B1F12001BFF4F7AF0A
:1052C000090728BFA0E80C5048BF0CC05DF804EBEC
:1052D000890028BF40F8042B08BF704748BF20F85A
:1052E000022B11F0804F18BF00F8012B7047704758
:1052F0007047704770472DE9F0470D469946924632
:10530000044600F124080168880604D5E06921F00C
:105310001001216000E00120A84201DD471B00E0F0
:105320000027A1697A1902EB0900081AA061207808
:10533000C00602D42046AFF30080002608E0D4E97E
:1053400001211AF806009047206A401C761C206252
:105350004E45F4DB2078C0060AD52046AFF3008026
:1053600006E0D4E9012130209047206A401C2062E9
:10537000381EA7F10107F4DC07E0D4E9012118F891
:1053800005009047206A401C2062281EA5F10105F7
:10539000F3DC2046AFF300802078000602D502201F
:1053A000BDE8F0870120FBE770472DE9FF4F0C4671
:1053B0001E464FF0FF378BB0D2E90001DDF8608068
:1053C0000A908A46C1F30A5505B93D4600210846B0
:1053D0004FF00000BAF1000F00F4400005DA00EBD6
:1053E00080004FF4400101EA50004FEA9059B9F1B2
:1053F000010F00DDB9460A9850EA4A000ED044F683
:105400001050A5F2FF3545432F14B8F1000F1ED000
:105410007542291E1EDDC9F100021CE0B8F1010F22
:105420004FF0000001D0302103E0F24305E02154A9
:10543000401CB042FBDB30460022002121540B9976
:10544000C1F80880C1E900200FB0BDE8F08FBD1B96
:105450006D1CDEE74A4600DA694206A800F0D0FE7D
:1054600006AB93E8070003AB83E8070050460A99B0
:1054700001F007FA8DE80700A0F500501F380090F2
:105480000398002D09DD42F21F014A46084403A992
:105490000390684601F091FC08E0A0F500504A46F0
:1054A0001F3803A90390684601F0AFFC8DE80700A0
:1054B0000004000C03D04FF0FF30410800E010461C
:1054C000B8F1000F03D00022009215461EE0751EB1
:1054D00005D400F04DFC303262556D1EF9D5B3464F
:1054E0000122084302D000227F1C04E020783028EB
:1054F00001D100227F1E002A099786D01DE0112DC0
:1055000007DA00F035FC303262556D1C50EA0102BA
:10551000F5D1084302D00098C8B10EE00021681E02
:1055200005E0235C625C63542254401E491C8142A6
:10553000F7DBAB46A81B401E0990002004F80B00C7
:105540000B98099AC0F80880C0E9002B7CE7112667
:105550004FF0000859E72DE9F04F88460446D21D68
:1055600022F0070191B0D1E90001CDE90A0101F073
:1055700096FD02460B98C00F01D02D2007E0206851
:10558000810701D52B2002E0202101EAC000032A77
:10559000099001D0072A05DB03464146204600F06A
:1055A00035FC0BE12078800601D5E06900E006209B
:1055B000B8F1650F814606D0B8F1660F18D0B8F182
:1055C000670F70D131E00020B9F1110F009001DBBD
:1055D000112301E009F101030AAA01A90CA8FFF7B0
:1055E000E4FEDDE90C70002609F10105834647E081
:1055F00001204B4600904FF000470AAA01A90CA8D1
:10560000FFF7D3FEDDE90DB00C995D46002610B919
:1056100009F101000D18B9EB050003D4C0F1FF3604
:1056200009F10105A5EB09002BE0B9F1010F01DA41
:105630004FF001090020B9F1110F0090484601DD3B
:10564000112300E003460AAA01A90CA8FFF7ADFE4A
:10565000DDE90C704D4600268346207800070AD409
:10566000AB4500DA5D4601A8012D04DD411911F8B2
:10567000011C302907D04F4502DA17F1040F04DA74
:10568000012082460FE06D1EEEE7002F02DCED1BCD
:105690003E4403E0781CA84200DD7D1CB81B00F1ED
:1056A000010A4FF000472078000703D4AA4501DB28
:1056B0004FF0FF3A0021B7F1004F0DF143088DF88C
:1056C000431024D002202B23002F01DA7F422D2308
:1056D0000A21021EA0F1010000DC5FB197FBF1FC82
:1056E00097FBF1F201FB1C7C17460CF1300C08F81B
:1056F00001CDEEE7A8F1010003702188090501D56D
:10570000452100E06521A0F1010800F8011C09987D
:105710000FA9A1EB0807FF1D00B10120411901EB02
:10572000EA70A1693844081A401EA0612078C006BA
:1057300002D42046AFF30080099828B1D4E90121B2
:105740009047206A401C20622078C00622D520465F
:10575000AFF300801EE0002E04DBB34502DD01A89C
:10576000805D00E03020D4E901219047206A401C90
:105770002062761CAAF101005FEA000A0AD100F05B
:10578000EFFAC0680168405CD4E901219047206AC3
:10579000401C2062281EA5F10105DCDC07E0D4E9ED
:1057A000012118F8010B9047206A401C2062381E26
:1057B000A7F10107F3DC2046AFF30080032011B00E
:1057C00043E6000001694A1C02610878704700B591
:1057D0008FB0CDE901310021059105497944CDE92A
:1057E000031011466846FFF7F5FB0FB000BD00003F
:1057F000E5FFFFFF0A6802F8010B0A60704710B569
:10580000436913B1AFF3008001E0FFF717FC0120FB
:1058100010BD127800F124010A7000224A700122A2
:10582000EDE711684FF0FF32E9E70000074B70B574
:105830000D467B44FFF7CBFF0446284600F04EFDA3
:1058400010B14FF0FF3070BD204670BD07CEFFFF96
:105850002DE9FF4F064689B00878FF2806D0491C7D
:105860002D2805D000244FF0000908E000200CE0AE
:105870000124F8E709EB8903491C00EB4309087888
:10588000FF28F7D114B1C9F1000081461078002536
:105890002C46AA4629462D2801D02B2804D1521C7B
:1058A0002D2813D0002082468B461078FF280FD079
:1058B0004FF0000C0A21521CA5FB017804FB01816A
:1058C00005FB0C11C5194BEB0104EEE70120EAE7DB
:1058D000002108464FF00000BAF1000F02D000EBA3
:1058E00080004008C0F38158B8F1010F01DD4FF08E
:1058F000FF380C9809EB000755EA040009D04FF077
:10590000020917F5FA7F0BDA4FEACA70C6E900B050
:1059100012E04FEACA70C6E900B00DB0BDE8F08FE2
:10592000B7F5FA7F0DDDF0487844D0E90010C6E9FC
:10593000001040EACA70706000F016FAC0F80090DB
:10594000EBE7391E02DAC8F1000200E0424600DA55
:10595000794206A800F054FC06AB93E8070003ABBD
:1059600083E8070044F23E005BEA040100905846D9
:1059700004D144F21E012C465D460091210C09041D
:10598000014306D10099240444EA15442D0410393A
:10599000009104F07F41014306D10099240244EABA
:1059A00015642D020839009104F07041014306D1BD
:1059B0000099240144EA15742D01091F009104F097
:1059C0004041014306D10099A40044EA9574AD001A
:1059D000891E009104F00041084304D100986D191C
:1059E0006441401E009042466846002FCDE90145C3
:1059F00003A902DD01F01DFA01E001F0F2F9BAF1AC
:105A0000000F04460D4601D084F0004440F2FF77B9
:105A100024F00040284303D0C4F30A50B84212D106
:105A200000F0A2F9C0F80090C4F30A50B8420AD1BD
:105A3000AE487844D0E90010C6E9001004F00041F7
:105A40000843706069E7C6E9005466E72DE9FF4F37
:105A50001F464FF0000A4FF0FF38454691B0D7E996
:105A60000146CDF83CA000F07BF9C0680168405CBD
:105A70001090B96912986D1C8847396A8146884729
:105A80000028F6D1B9F1FF3F0AD0002E24F4D064EB
:105A900011DDB9F12B0F08D0B9F12D0F0BD102E0B8
:105AA000404615B03AE744F48064B96912986D1C19
:105AB0008847761E8146600504A901D52D2000E0A7
:105AC0002B20002E01F1010B0DF130088DF8100094
:105AD0003FDDB9F1690F08D0B9F1490F05D0B9F12F
